:100000000C9446000C94B4040C9471010C9465009B
:100010000C9465000C9465000C9465000C946500CC
:100020000C9465000C9465000C9465000C946500BC
:100030000C9465000C9465000C9465000C946500AC
:100040000C9465000C9465000C9467000C9465009A
:100050000C9465000C9465000C9465000C9465008C
:100060000C9465000C9465000C9465000C9465007C
:100070000C9465000C9465000C9465000C9465006C
:100080000C9465000C9465000C94650011241FBE4F
:10009000CFEFD0E1DEBFCDBF12E0A0E0B1E0E4E5FC
:1000A000F1E200E00BBF02C007900D92A63DB10740
:1000B000D9F713E0A6EDB2E001C01D92A13EB10751
:1000C000E1F70E94D7050C94A8100C9400001F9231
:1000D0000F920FB60F920BB60F9211242F933F93EE
:1000E0008F939F93EF93FF938BB12CB180919B00E3
:1000F00085FFFCCF20939C0030917903332321F0BE
:10010000313009F05AC017C0223001F51092EA02CE
:100110001092E9028091E9029091EA02FC01E35811
:10012000FC4F208301969093EA028093E90281E0DC
:100130008093790342C08091E9029091EA02893C60
:1001400091053CF01092EA021092E90210927903B4
:1001500034C0233019F58091E9029091EA02FC0144
:10016000E358FC4F208301969093EA028093E902C2
:10017000109279038091E9029091EA02019790939D
:10018000EE028093ED028091ED029091EE02909349
:10019000F0028093EF023093E8020FC08091E902F1
:1001A0009091EA02FC01E358FC4F20830196909362
:1001B000EA028093E90230937903FF91EF919F91D6
:1001C0008F913F912F910F900BBE0F900FBE0F900C
:1001D0001F901895AF92BF92CF92DF92EF92FF924D
:1001E0000F931F939C01E091DA02F091DB02EE5332
:1001F000FE4F80818BBB80917803863431F58091EE
:10020000DA029091DB0201969093DB028093DA028E
:100210008091DA029091DB02089724F01092DB02C1
:100220001092DA028091DE029091DF02A091E0024A
:10023000B091E1020196A11DB11D8093DE02909361
:10024000DF02A093E002B093E102B901882777FDB5
:100250008095982F0E94AB0A5B016C0120E030E092
:100260004AE755E40E9421097B018C0120E030E03F
:1002700040E85FE30E947B0A88231CF461E070E0A1
:1002800024C0C801B70120E03FEF4FE757E40E94C8
:100290001B0A1816B4F4C601B50120E030E040E2B4
:1002A00051E40E9421090E944B0780E991E005C0BA
:1002B000FC013197F1F76150704061157105C1F78C
:1002C00007C0C801B7010E944B07CB010197F1F7A6
:1002D0001F910F91FF90EF90DF90CF90BF90AF9064
:1002E00008951F920F920FB60F9211248F9383E5FA
:1002F000809378038F910F900FBE0F901F901895E9
:100300008FEF8ABB1092610084B38C6F84BB089519
:1003100083E089BF82E080936A0008959B01AC016D
:1003200084E0220F331F441F551F8A95D1F760E0E8
:1003300074E284EF90E00E94520D215030403093DF
:10034000900029B988E98AB986E0809395000895DC
:100350009B01AC0194E0220F331F441F551F9A9557
:10036000D1F760E074E284EF90E00E94520D2150DA
:100370003040309398002093990088E180939A0050
:1003800086E080939D00089587E886B908958230BD
:1003900051F0833029F0813031F48AEB91E005C0CF
:1003A00082EB91E002C082EC91E090937C03809319
:1003B0007B0308958091DE029091DF02A091E0021C
:1003C000B091E102805D9740A040B04070F0109283
:1003D000DE021092DF021092E0021092E10281E050
:1003E00090E09093E7028093E60208958FEF8ABB36
:1003F0001092610084B38C6F84BB83E089BF82E07C
:1004000080936A0060E875E280E090E00E948E01CF
:1004100060E875E280E090E00E94A8017894089579
:100420005F9BFECF8CB1089580919B0087FFFCCF2E
:1004300080919C0008955D9BFECF8CB90895982F04
:1004400080919B0085FFFCCF90939C000895FC0158
:10045000DC0120E040E951E0822F806C87B9CA01BD
:100460000197F1F7369A349BFECF84B195B18D9305
:100470009D93349A2F5F223079F7828193819695EC
:10048000879596958795938382830895FC0104C090
:100490005D9BFECF31968CB980818823C9F7089582
:1004A000FC0107C080919B0085FFFCCF31969093A3
:1004B0009C0090819923B1F70895DC0140E050E061
:1004C00020E030E009C0FD01E40FF51F808190E0DD
:1004D000282739274F5F5F4F46175707A4F330701F
:1004E000C90108958091DE029091DF02A091E0029F
:1004F000B091E10280519742A040B04058F4109270
:10050000DE021092DF021092E0021092E10280E01F
:1005100091E07AC08091DE029091DF02A091E0022A
:10052000B091E10281549C49A040B040E0F080913C
:10053000DE029091DF02A091E002B091E1028056CC
:100540009A4EA040B04078F480E593ECA0E0B0E093
:100550008093DE029093DF02A093E002B093E10269
:1005600084E191E051C08091DE029091DF02A09180
:10057000E002B091E10281599F45A140B040E0F016
:100580008091DE029091DF02A091E002B091E10241
:10059000805B9D4AA140B04078F480EA96E8A1E0F3
:1005A000B0E08093DE029093DF02A093E002B0936C
:1005B000E1028CE291E028C08091DE029091DF029E
:1005C000A091E002B091E102815E9242A240B0406F
:1005D000F0F08091DE029091DF02A091E002B091F4
:1005E000E10280509147A240B04088F480EF99E446
:1005F000A2E0B0E08093DE029093DF02A093E002DD
:10060000B093E10285E491E00E9450020895809148
:10061000DE029091DF02A091E002B091E1028153ED
:10062000964EA240B040E8F08091DE029091DF0249
:10063000A091E002B091E10280559443A340B04004
:1006400080F480E49DE0A3E0B0E08093DE0290932C
:10065000DF02A093E002B093E1028EE591E00E94F8
:10066000500208950F931F93DF93CF93CDB7DEB75A
:10067000AC970FB6F894DEBF0FBECDBF162F1A820F
:1006800019821C821B8229813A81DE011F96FD019D
:10069000E20FF31F92E090832F5F3F4F3A8329834D
:1006A00029813A81FD01E20FF31F4AE340832F5F66
:1006B0003F4F3A83298329813A81FD01E20FF31FDD
:1006C00080832F5F3F4F3A83298389819A81FD017F
:1006D000E80FF91F408301969A83898389819A8163
:1006E000FD01E80FF91F21E3208301969A83898396
:1006F00089819A81A80FB91F4C9301969A838983A7
:100700002091DE023091DF024091E0025091E1023F
:100710008DB79EB708970FB6F8949EBF0FBE8DBFDA
:10072000EDB7FEB73196CE010596ADB7BEB71296BE
:100730009C938E93119787E791E093838283248320
:100740003583468357830E94D10D8DB79EB7089697
:100750000FB6F8949EBF0FBE8DBF80919B0085FFA2
:10076000FCCF8DE080939C00CE0105960E94500244
:1007700080919B0085FFFCCF8DE080939C00183317
:1007800009F060C08091CB01813309F05BC08981A1
:100790009A812D81DE011F96FD01E80FF91F20834C
:1007A00001969A83898389819A812E81FD01E80FC0
:1007B000F91F208301969A83898389819A812F81E9
:1007C000FD01E80FF91F208301969A8389838981AF
:1007D0009A812885FD01E80FF91F208301969A83ED
:1007E000898389819A812985FD01E80FF91F20837A
:1007F00001969A83898389819A812A85FD01E80F70
:10080000F91F208301969A83898389819A812B8598
:10081000FD01E80FF91F208301969A83898389815E
:100820009A812C85FD01E80FF91F208301969A8398
:10083000898389819A81A80FB91F2AE32C93019695
:100840009A83898389819A81AE01415F5F4FFA0162
:10085000E80FF91F108301969A83898389819A8111
:10086000FA01E80FF91F2AE3208301969A8389830E
:10087000A981BA8160E070E020E030E08A0109C01F
:10088000F801E20FF31F808190E0682779272F5F3E
:100890003F4F2A173B07A4F370707C836B832B8137
:1008A0003C8100D000D000D0EDB7FEB73196CE012C
:1008B0000596ADB7BEB712969C938E9311978DE7B0
:1008C00091E0938382833070358324830E94D10D1D
:1008D00089819A812D81F801E80FF91F2083019603
:1008E0009A83898389819A812E81F801E80FF91F03
:1008F000208301969A83898389819A81F801E80F80
:10090000F91F3AE3308301969A83898389819A811A
:10091000F801E80FF91F23E0208301969A83898369
:1009200089819A81F801E80FF91F308301969A8333
:100930008983E981FA81E00FF11F10828DB79EB79C
:1009400006960FB6F8949EBF0FBE8DBFC8010E94D9
:100950004602AC960FB6F894DEBF0FBECDBFCF9166
:10096000DF911F910F9108951F920F920FB60F9272
:100970000BB60F9211242F933F934F935F936F9376
:100980007F938F939F93AF93BF93EF93FF9381E3F5
:1009900068E30E943203FF91EF91BF91AF919F9165
:1009A0008F917F916F915F914F913F912F910F9018
:1009B0000BBE0F900FBE0F901F901895AF92BF9275
:1009C000CF92DF92EF92FF920F931F93DF93CF931B
:1009D000CDB7DEB7A8970FB6F894DEBF0FBECDBF78
:1009E000DC011092F2021092F10212968C91129791
:1009F0008093CB018133D1F0823309F0C5C063E02D
:100A000070E020E030E0EFE1AE2EB12CAC0EBD1E68
:100A100055E1C52ED12CCC0EDD1E4BE0E42EF12C81
:100A2000EC0EFD1E8E010F5F1F4F66C014968C9159
:100A3000149780936D0316968C9180937803A4C0CD
:100A4000FD01E60FF71F40814A3361F48091F10206
:100A50009091F20201969093F2028093F10220E0CD
:100A600030E048C08091F1029091F202019719F4B0
:100A70004093F5023FC08091F1029091F2020297FB
:100A800011F4F80132C08091F1029091F2020397C3
:100A900019F44093FA022EC08091F1029091F20273
:100AA000049711F4F70121C08091F1029091F202B4
:100AB000059719F44093FF021DC08091F1029091B7
:100AC000F202069711F4F60110C08091F1029091A4
:100AD000F202079719F4409304030CC08091F102CD
:100AE0009091F202089731F4F501E20FF31F408371
:100AF0002F5F3F4F6F5F7F4F8091ED029091EE022D
:100B0000681779070CF49CCFCE0101960E94AB0DBB
:100B1000AA2797FDA095BA2F8093F6029093F7022B
:100B2000A093F802B093F902CE010B960E94AB0D90
:100B3000AA2797FDA095BA2F8093FB029093FC0201
:100B4000A093FD02B093FE02CE0145960E94AB0D2C
:100B5000AA2797FDA095BA2F8093000390930103D5
:100B6000A0930203B0930303CE014F960E94AB0DF6
:100B7000AA2797FDA095BA2F8093050390930603AB
:100B8000A0930703B093080381E090E0A8960FB606
:100B9000F894DEBF0FBECDBFCF91DF911F910F91B3
:100BA000FF90EF90DF90CF90BF90AF9008954F925D
:100BB0005F926F927F928F929F92AF92BF92CF92ED
:100BC000DF92EF92FF920F931F93DF93CF9300D0AA
:100BD00000D0CDB7DEB7109279030E94F60182E80B
:100BE00091E00E9450021092DB021092DA0283E53B
:100BF0008093780384E190E09093DD028093DC029F
:100C000020E9622E21E0722E04E110E096E4492EE4
:100C10004E010894811C911C8DE7A82E81E0B82E0E
:100C2000B3E55B2EAEE0CA2ED12CF5E0EF2EF12C11
:100C300099991AC08091DC029091DD0202979093FD
:100C4000DD028093DC028091DC029091DD0202974C
:100C500024F41093DD020093DC0288E893E1F301B1
:100C60003197F1F70197D9F7989902C0409278032C
:100C70008091DC029091DD020E94EA008091E802FE
:100C80008130B1F68DE793E00E94DE0480916D0320
:100C9000813309F0FDC06091ED027091EE02635066
:100CA000704040E050E020E030E009C0F901E35836
:100CB000FC4F808190E0482759272F5F3F4F261730
:100CC0003707A4F300D000D000D0EDB7FEB73196BF
:100CD000ADB7BEB712969C928E921197B382A28244
:100CE0005070558344830E94D10DE091ED02F09144
:100CF000EE02E658FC4F90812DB73EB72A5F3F4F7A
:100D00000FB6F8943EBF0FBE2DBF8981891709F039
:100D1000ACC0E091ED02F091EE02E558FC4F9081FD
:100D20008A81891709F0A1C08091CB01813321F01C
:100D3000823309F0ADC00DC080917803863421F074
:100D4000833511F48093780381E368E30E943203D2
:100D50009FC0409278038091DE029091DF02A091C3
:100D6000E002B091E1022091FB023091FC0240913F
:100D7000FD025091FE0282179307A407B50708F001
:100D800071C08091DE029091DF02A091E002B091EB
:100D9000E102281B390B4A0B5B0B2093E2023093D4
:100DA000E3024093E4025093E5028091E2029091C5
:100DB000E302A091E402B091E50289559240A0407F
:100DC000B04094F08091E2029091E302A091E4029D
:100DD000B091E502885E9340A040B0402CF4F092C0
:100DE000DD02E092DC0254C08091E2029091E302C5
:100DF000A091E402B091E5028D529140A040B04034
:100E000094F08091E2029091E302A091E402B0910B
:100E1000E50288559240A040B0402CF4D092DD020B
:100E2000C092DC0235C08091E2029091E302A09171
:100E3000E402B091E502181619061A061B0694F48E
:100E40008091E2029091E302A091E402B091E50268
:100E50008C529140A040B0402CF41093DD020093DE
:100E6000DC0216C05092780313C08091CB0181330D
:100E700031F469E30E94320380E991E007C08233D4
:100E800039F469E30E94320381EA91E00E94500242
:100E90001092E802CDCEEF92FF920F931F937B0149
:100EA0008C0120E030E040E05FE40E944B0A8823A0
:100EB0008CF0C801B70120E030E040E05FE40E9420
:100EC000C3080E94090B9B01AC01205030404040F8
:100ED000504806C0C801B7010E94090B9B01AC0134
:100EE000B901CA011F910F91FF90EF900895A0E002
:100EF000B0E0EDE7F7E00C94740DDC012B01FA0192
:100F00009C91923008F439C1EB018881823008F459
:100F100033C1943069F4843009F02FC111969C914B
:100F200011978981981709F428C1ADECB1E025C16A
:100F3000843009F421C18230A9F4923009F01DC136
:100F40009A01AD0188E0EA010990AE01E901099238
:100F50009E018150C1F7E201898111969C918923FC
:100F6000818308C1923009F407C112962D903C90FC
:100F70001397EB018A819B811496AD90BD90CD9023
:100F8000DC901797EC80FD800E811F819101281B5A
:100F9000390BB90137FF04C066277727621B730B33
:100FA000603271050CF061C0121613066CF5370142
:100FB0004801062E04C096948794779467940A9407
:100FC000D2F721E030E040E050E004C0220F331FB0
:100FD000441F551F6A95D2F7215030404040504081
:100FE0002E213F2140235123211531054105510573
:100FF00021F021E030E040E050E079018A01E6286C
:10100000F728082919293CC0232BD1F1260E371EB9
:1010100035014601062E04C0969487947794679410
:101020000A94D2F721E030E040E050E004C0220F03
:10103000331F441F551F6A95D2F72150304040405E
:1010400050402A213B214C215D21211531054105CC
:10105000510521F021E030E040E050E059016A0103
:10106000A628B728C828D9280BC0821593052CF0CC
:101070001C01AA24BB24650103C0EE24FF248701C0
:1010800011969C91D20111968C91981709F445C044
:10109000992339F0A80197012A193B094C095D09E8
:1010A00006C0A60195012E193F09400B510B57FDB3
:1010B00008C011823382228224833583468357837A
:1010C0001DC081E081833382228288279927DC0139
:1010D000821B930BA40BB50B84839583A683B783E4
:1010E0000DC0220F331F441F551F248335834683B1
:1010F00057838281938101979383828324813581F1
:1011000046815781DA01C9010197A109B1098F5FB1
:101110009F4FAF4FBF4328F30BC09183338222828E
:10112000EA0CFB1C0C1D1D1DE482F582068317834F
:1011300083E08083248135814681578157FF1AC01F
:10114000C901AA2797FDA095BA2F81709070A07051
:10115000B0705695479537952795822B932BA42BE6
:10116000B52B84839583A683B7838281938101966F
:1011700093838283DF0101C0D201CD01CDB7DEB7F9
:10118000E2E10C94900DA0E2B0E0E9ECF8E00C9400
:10119000800D69837A838B839C832D833E834F8369
:1011A0005887E9E0EE2EF12CEC0EFD1ECE010196E3
:1011B000B7010E94810C8E010F5E1F4FCE01059674
:1011C000B8010E94810C8A8991E089278A8BC70126
:1011D000B801AE01475E5F4F0E9477070E94AC0BDB
:1011E000A096E6E00C949C0DA0E2B0E0EAEFF8E0F7
:1011F0000C94800D69837A838B839C832D833E833B
:101200004F835887F9E0EF2EF12CEC0EFD1ECE0136
:101210000196B7010E94810C8E010F5E1F4FCE0117
:101220000596B8010E94810CC701B801AE01475E66
:101230005F4F0E9477070E94AC0BA096E6E00C94EB
:101240009C0DA0E2B0E0E7E2F9E00C94740D698334
:101250007A838B839C832D833E834F835887CE0173
:101260000196BE01675F7F4F0E94810CCE010596FB
:10127000BE016F5E7F4F0E94810C9985923088F08D
:1012800089898230C8F0943019F4823051F404C056
:10129000843029F4923081F48DEC91E0C6C0923014
:1012A00049F420E09A858A89981321E02A87CE01A3
:1012B0000996BBC0823049F420E09A858A89981348
:1012C00021E02A8BCE014196B0C02D843E844F840C
:1012D00058886D887E888F88988CEE24FF2487013B
:1012E000AA24BB24650140E050E060E070E0E0E04B
:1012F000F0E0C10181709070892BE9F0E60CF71CD9
:10130000081D191D9A01AB012A0D3B1D4C1D5D1DC9
:1013100080E090E0A0E0B0E0E614F70408051905CD
:1013200020F481E090E0A0E0B0E0BA01A901480F0C
:10133000591F6A1F7B1FAA0CBB1CCC1CDD1C97FE0F
:1013400008C081E090E0A0E0B0E0A82AB92ACA2A4B
:10135000DB2A3196E032F10549F0660C771C881CD7
:10136000991C5694479437942794C3CFFA85EA89F9
:101370002B893C898B859C85280F391F2E5F3F4F19
:1013800017C0CA0181709070892B61F0169507957E
:10139000F794E79480E090E0A0E0B0E8E82AF92A2A
:1013A0000A2B1B2B76956795579547952F5F3F4FD7
:1013B00077FDE7CF0CC0440F551F661F771F17FD41
:1013C0004160EE0CFF1C001F111F215030404030C7
:1013D00090E0590790E0690790E4790760F32B8F5C
:1013E0003C8FDB01CA018F779070A070B0708034A1
:1013F0009105A105B10561F447FD0AC0E114F104AE
:101400000105110529F0405C5F4F6F4F7F4F407819
:101410001A8EFE1711F081E08A8F4D8F5E8F6F8FCD
:1014200078A383E0898FCE0149960E94AC0BA096E9
:10143000E2E10C94900DA8E1B0E0E1E2FAE00C9456
:10144000800D69837A838B839C832D833E834F83B6
:10145000588789E0E82EF12CEC0EFD1ECE01019696
:10146000B7010E94810C8E010F5E1F4FCE010596C1
:10147000B8010E94810C8985823040F089898230D0
:1014800028F0C701B8010E94F90C01C08FEF6896DF
:10149000E6E00C949C0DA8E1B0E0E1E5FAE00C94E4
:1014A000800D69837A838B839C832D833E834F8356
:1014B000588789E0E82EF12CEC0EFD1ECE01019636
:1014C000B7010E94810C8E010F5E1F4FCE01059661
:1014D000B8010E94810C8985823040F08989823070
:1014E00028F0C701B8010E94F90C01C08FEF68967F
:1014F000E6E00C949C0DA8E1B0E0E1E8FAE00C9481
:10150000800D69837A838B839C832D833E834F83F5
:10151000588789E0E82EF12CEC0EFD1ECE010196D5
:10152000B7010E94810C8E010F5E1F4FCE01059600
:10153000B8010E94810C8985823040F0898982300F
:1015400028F0C701B8010E94F90C01C081E068963B
:10155000E6E00C949C0DA8E0B0E0E1EBFAE00C941E
:101560007D0D9B01AC0183E08983DA01C9018827E5
:10157000B7FD83959927AA27BB27B82E21153105DA
:101580004105510519F482E089833AC08823A9F006
:10159000203080E0380780E0480780E8580729F4C9
:1015A00060E070E080E09FEC30C0EE24FF24870113
:1015B000E21AF30A040B150B02C079018A018EE1CD
:1015C000C82ED12CDC82CB82ED82FE820F8318875D
:1015D000C801B7010E945D0B01971816190684F423
:1015E000082E04C0EE0CFF1C001F111F0A94D2F736
:1015F000ED82FE820F831887C81AD90ADC82CB825B
:10160000BA82CE0101960E94AC0B2896E9E00C94B8
:10161000990DACE0B0E0EFE0FBE00C94840D698341
:101620007A838B839C83CE010196BE016B5F7F4FD3
:101630000E94810C8D81823061F1823050F18430C2
:1016400021F48E81882351F12EC02F81388537FDFA
:1016500020C06E812F3131051CF06623F9F023C0C4
:101660008EE190E0821B930B29853A854B855C8542
:1016700004C056954795379527958A95D2F76623E6
:10168000B1F050954095309521953F4F4F4F5F4FAA
:101690000EC020E030E040E050E009C02FEF3FEF07
:1016A0004FEF5FE704C020E030E040E050E8B901D0
:1016B000CA012C96E2E00C94A00DEF92FF920F93DA
:1016C0001F937B018C0180E0E81680E0F80681E042
:1016D000080780E0180788F48FEFE816F104010589
:1016E000110531F028F088E090E0A0E0B0E017C0EC
:1016F00080E090E0A0E0B0E012C080E0E81680E07A
:10170000F80680E0080781E0180728F088E190E0FB
:10171000A0E0B0E004C080E190E0A0E0B0E020E212
:1017200030E040E050E0281B390B4A0B5B0B04C053
:1017300016950795F794E7948A95D2F7F701EB523F
:10174000FE4F8081281B310941095109C9011F91B0
:101750000F91FF90EF900895DF92EF92FF920F9319
:101760001F93FC01E480F58006811781D180808180
:10177000823048F480E090E0A0E1B0E0E82AF92A65
:101780000A2B1B2BA5C0843009F49FC0823021F4A2
:10179000EE24FF24870105C0E114F10401051105C1
:1017A00019F4E0E0F0E096C0628173819FEF623847
:1017B00079070CF05BC022E83FEF261B370B2A317C
:1017C00031052CF020E030E040E050E02AC0B801C4
:1017D000A701022E04C076956795579547950A9400
:1017E000D2F781E090E0A0E0B0E004C0880F991F3C
:1017F000AA1FBB1F2A95D2F70197A109B1098E2113
:101800009F21A023B1230097A105B10521F081E01C
:1018100090E0A0E0B0E09A01AB01282B392B4A2BD5
:101820005B2BDA01C9018F779070A070B0708034A3
:101830009105A105B10539F427FF09C0205C3F4F90
:101840004F4F5F4F04C0215C3F4F4F4F5F4FE0E071
:10185000F0E02030A0E03A07A0E04A07A0E45A07F1
:1018600010F0E1E0F0E079018A0127C060387105ED
:1018700064F5FB01E158FF4FD801C7018F779070E5
:10188000A070B07080349105A105B10539F4E7FE70
:101890000DC080E490E0A0E0B0E004C08FE390E0F1
:1018A000A0E0B0E0E80EF91E0A1F1B1F17FF05C0DD
:1018B00016950795F794E794319687E01695079566
:1018C000F794E7948A95D1F705C0EE24FF248701A9
:1018D000EFEFF0E06E2F679566276795902F9F7763
:1018E000D794DD24D7948E2F8695492F462B582FD9
:1018F0005D29B701CA011F910F91FF90EF90DF9012
:101900000895FC01DB01408151812281622F6F77B4
:1019100070E0221F2227221F9381892F880F822B9C
:10192000282F30E0991F9927991F11969C931197A2
:1019300021153105A9F5411551056105710511F410
:1019400082E037C082E89FEF13969C938E931297A4
:101950009A01AB0167E0220F331F441F551F6A95A0
:10196000D1F783E08C930DC0220F331F441F551F06
:1019700012968D919C911397019713969C938E9339
:101980001297203080E0380780E0480780E458074D
:1019900058F314962D933D934D935C9317970895A8
:1019A0002F3F310579F4411551056105710519F491
:1019B00084E08C93089564FF03C081E08C9312C08F
:1019C0001C9210C02F57304013963C932E931297C1
:1019D00083E08C9387E0440F551F661F771F8A951D
:1019E000D1F7706414964D935D936D937C93179724
:1019F00008951F93DC01FB019C91923008F447C0CD
:101A00008081823008F443C0943051F411961C91C7
:101A1000843099F58181682F70E0611B71093FC0A6
:101A2000843021F0923031F48230B9F18181882301
:101A300089F12DC011961C9111978230F1F08181AE
:101A40001817D9F412962D913C91139782819381A6
:101A50008217930794F028173907BCF014968D91DC
:101A60009D910D90BC91A02D248135814681578197
:101A7000281739074A075B0718F4112341F00AC0F9
:101A800082179307A407B50740F4112319F061E00A
:101A900070E005C06FEF7FEF02C060E070E0CB0147
:101AA0001F910895A1E21A2EAA1BBB1BFD010DC0B8
:101AB000AA1FBB1FEE1FFF1FA217B307E407F507FE
:101AC00020F0A21BB30BE40BF50B661F771F881FDA
:101AD000991F1A9469F760957095809590959B0170
:101AE000AC01BD01CF0108952F923F924F925F92BA
:101AF0006F927F928F929F92AF92BF92CF92DF921E
:101B0000EF92FF920F931F93CF93DF93CDB7DEB782
:101B1000CA1BDB0B0FB6F894DEBF0FBECDBF099416
:101B20002A88398848885F846E847D848C849B846D
:101B3000AA84B984C884DF80EE80FD800C811B817B
:101B4000AA81B981CE0FD11D0FB6F894DEBF0FBEAA
:101B5000CDBFED010895FC0188279927E8942191D4
:101B60002032E9F3293010F02E30C8F32B3241F047
:101B70002D3239F4689404C00E94C90D820F911D62
:101B8000219120532A30C0F31EF4909581959F4FE8
:101B900008957AE0979F902D879F802D910D1124B5
:101BA00008950F931F93DF93CF93CDB7DEB72E9792
:101BB0000FB6F894DEBF0FBECDBF0D891E8986E03B
:101BC0008C831A8309838FEF9FE79E838D839E0109
:101BD000275E3F4FCE0101966F89788DA9010E9443
:101BE000020E2F813885020F131FF80110822E96E6
:101BF0000FB6F894DEBF0FBECDBFCF91DF911F911E
:101C00000F9108952F923F924F925F926F927F9221
:101C10008F929F92AF92BF92CF92DF92EF92FF92FC
:101C20000F931F93DF93CF93CDB7DEB72B970FB6EC
:101C3000F894DEBF0FBECDBF3C012B015A01FC0161
:101C400017821682838181FD03C06FEF7FEFC6C1CB
:101C50009AE0892E1E010894211C311CF301238176
:101C6000F20123FD859123FF81912F01882309F43F
:101C7000B2C1853239F423FD859123FF81912F0173
:101C8000853229F490E0B3010E941E10E7CF982F0F
:101C9000FF24EE249924FFE1FF15D0F09B3269F078
:101CA0009C3228F4903259F0933291F40EC09D3258
:101CB00049F0903369F441E024C052E0F52A84E011
:101CC000F82A28C098E0F92A25C0E0E1FE2A22C0BF
:101CD000F7FC29C0892F80538A3070F4F6FE05C0C6
:101CE000989C902C1124980E15C0E89CE02C11248F
:101CF000E80EF0E2FF2A0EC09E3229F4F6FC6BC11A
:101D000040E4F42A07C09C3619F450E8F52A02C0D2
:101D1000983649F4F20123FD959123FF91912F010B
:101D2000992309F0B8CF892F8554833018F0805259
:101D3000833038F444E050E0A40EB51E5FE35983CD
:101D40000FC0933631F0933779F0933509F056C0D0
:101D500020C0F5018081898342E050E0A40EB51EC9
:101D6000610101E010E012C0F501C080D180F6FCF5
:101D700003C06FEF7FEF02C0692D70E042E050E0DA
:101D8000A40EB51EC6010E9413108C015FE7F52258
:101D900014C0F501C080D180F6FC03C06FEF7FEF67
:101DA00002C0692D70E042E050E0A40EB51EC601ED
:101DB0000E9408108C0150E8F52AF3FE07C01AC0F3
:101DC00080E290E0B3010E941E10EA948E2D90E014
:101DD00008171907A8F30EC0F601F7FC8591F7FE66
:101DE00081916F0190E0B3010E941E10E110EA940E
:101DF000015010400115110579F7EAC0943611F031
:101E0000993669F5F7FE08C0F501208131814281DC
:101E1000538184E090E00AC0F501808191819C01AA
:101E2000442737FD4095542F82E090E0A80EB91E5C
:101E30009FE6F92257FF09C05095409530952195AE
:101E40003F4F4F4F5F4FE0E8FE2ACA01B901A101A1
:101E50002AE030E00E944A10D82ED21840C09537B0
:101E600029F41F2D1F7E2AE030E01DC01F2D197F91
:101E70009F3661F0903720F4983509F0ACC00FC060
:101E8000903739F0983709F0A6C004C028E030E058
:101E90000AC0106114FD146020E130E004C014FD9C
:101EA000166020E132E017FF08C0F5016081718102
:101EB0008281938144E050E008C0F50180819181E6
:101EC000BC0180E090E042E050E0A40EB51EA1010C
:101ED0000E944A10D82ED2188FE7F82EF122F6FE73
:101EE0000BC05EEFF522D91438F4F4FE07C0F2FC03
:101EF00005C08FEEF82202C01D2D01C0192DF4FE81
:101F00000DC0FE01ED0DF11D8081803319F499EEB5
:101F1000F92208C01F5FF2FE05C003C08F2D86782E
:101F200009F01F5F0F2DF3FC14C0F0FE0FC01E154B
:101F300010F09D2C0BC09D2C9E0C911A1E2D06C0DE
:101F400080E290E0B3010E941E101F5F1E15C0F3D7
:101F500004C01E1510F4E11A01C0EE2404FF0FC0E6
:101F600080E390E0B3010E941E1002FF1DC001FD3E
:101F700003C088E790E00EC088E590E00BC0802F9A
:101F8000867891F001FF02C08BE201C080E2F7FC8D
:101F90008DE290E0B3010E941E1006C080E390E045
:101FA000B3010E941E109A94D914C0F3DA94F1017F
:101FB000ED0DF11D808190E0B3010E941E10DD2027
:101FC000A9F706C080E290E0B3010E941E10EA94D7
:101FD000EE20C1F743CEF30166817781CB012B96CA
:101FE0000FB6F894DEBF0FBECDBFCF91DF911F912A
:101FF0000F91FF90EF90DF90CF90BF90AF909F90A8
:102000008F907F906F905F904F903F902F900895AA
:10201000FC010590615070400110D8F780959095B3
:102020008E0F9F1F0895FC016150704001900110B8
:10203000D8F7809590958E0F9F1F08950F931F934B
:10204000CF93DF938C01EB018B8181FF1BC082FF5B
:102050000DC02E813F818C819D812817390764F442
:10206000E881F9810193F983E88306C0E885F98561
:10207000802F0995892B31F48E819F8101969F8352
:102080008E8302C00FEF1FEFC801DF91CF911F9128
:102090000F910895FA01AA27283051F1203181F1DA
:1020A000E8946F936E7F6E5F7F4F8F4F9F4FAF4F60
:1020B000B1E03ED0B4E03CD0670F781F891F9A1F73
:1020C000A11D680F791F8A1F911DA11D6A0F711D27
:1020D000811D911DA11D20D009F468943F912AE033
:1020E000269F11243019305D3193DEF6CF0108951B
:1020F000462F4770405D4193B3E00FD0C9F7F6CF4C
:10210000462F4F70405D4A3318F0495D31FD405213
:10211000419302D0A9F7EACFB4E0A69597958795A9
:1021200077956795BA95C9F7009761057105089588
:102130009B01AC010A2E0694579547953795279534
:10214000BA95C9F7620F731F841F951FA01D0895CC
:04215000F894FFCF31
:102154000D737465705F636F756E7420696E697456
:1021640020300A000D737465705F636F756E7420A0
:10217400696E69742035303030300A000D7374652F
:10218400705F636F756E7420696E697420313030CE
:102194003030300A000D737465705F636F756E7450
:1021A40020696E6974203135303030300A000D7387
:1021B4007465705F636F756E7420696E6974203224
:1021C40030303030300A002530386C580025303239
:1021D40058000D61767220696E6974206F6B0D0072
:1021E4000D436F6D6D616E642031204E41434B0A87
:1021F400000D436F6D6D616E642032204E41434B80
:102204000A0089C1436226341C98010204080102B1
:1022140004080903060C0903060C463130000000CB
:10222400000000000000010202030303030404048D
:10223400040404040405050505050505050505054F
:10224400050505050506060606060606060606062F
:10225400060606060606060606060606060606061A
:1022640006060606060707070707070707070707FF
:1022740007070707070707070707070707070707EA
:1022840007070707070707070707070707070707DA
:1022940007070707070707070707070707070707CA
:1022A40007070707070808080808080808080808AF
:1022B400080808080808080808080808080808089A
:1022C400080808080808080808080808080808088A
:1022D400080808080808080808080808080808087A
:1022E400080808080808080808080808080808086A
:1022F400080808080808080808080808080808085A
:102304000808080808080808080808080808080849
:102314000808080808080808080808080808080839
:062324000808080808008B
:00000001FF
